{
  "contractName": "FileStorage",
  "abi": [
    {
      "anonymous": false,
      "inputs": [
        {
          "indexed": true,
          "internalType": "string",
          "name": "ipfsHash",
          "type": "string"
        },
        {
          "indexed": true,
          "internalType": "address",
          "name": "sender",
          "type": "address"
        },
        {
          "indexed": true,
          "internalType": "address",
          "name": "receiver",
          "type": "address"
        },
        {
          "indexed": false,
          "internalType": "uint256",
          "name": "timestamp",
          "type": "uint256"
        }
      ],
      "name": "AccessGranted",
      "type": "event"
    },
    {
      "anonymous": false,
      "inputs": [
        {
          "indexed": true,
          "internalType": "string",
          "name": "ipfsHash",
          "type": "string"
        },
        {
          "indexed": true,
          "internalType": "address",
          "name": "sender",
          "type": "address"
        },
        {
          "indexed": true,
          "internalType": "address",
          "name": "receiver",
          "type": "address"
        },
        {
          "indexed": false,
          "internalType": "uint256",
          "name": "timestamp",
          "type": "uint256"
        }
      ],
      "name": "AccessRevoked",
      "type": "event"
    },
    {
      "anonymous": false,
      "inputs": [
        {
          "indexed": true,
          "internalType": "string",
          "name": "ipfsHash",
          "type": "string"
        },
        {
          "indexed": true,
          "internalType": "address",
          "name": "user",
          "type": "address"
        },
        {
          "indexed": false,
          "internalType": "uint256",
          "name": "timestamp",
          "type": "uint256"
        }
      ],
      "name": "FileAccessed",
      "type": "event"
    },
    {
      "anonymous": false,
      "inputs": [
        {
          "indexed": true,
          "internalType": "string",
          "name": "ipfsHash",
          "type": "string"
        },
        {
          "indexed": false,
          "internalType": "string",
          "name": "fileName",
          "type": "string"
        },
        {
          "indexed": false,
          "internalType": "string",
          "name": "description",
          "type": "string"
        },
        {
          "indexed": false,
          "internalType": "uint256",
          "name": "timestamp",
          "type": "uint256"
        },
        {
          "indexed": true,
          "internalType": "address",
          "name": "owner",
          "type": "address"
        }
      ],
      "name": "FileUploaded",
      "type": "event"
    },
    {
      "inputs": [
        {
          "internalType": "string",
          "name": "",
          "type": "string"
        },
        {
          "internalType": "address",
          "name": "",
          "type": "address"
        }
      ],
      "name": "accessList",
      "outputs": [
        {
          "internalType": "bool",
          "name": "hasAccess",
          "type": "bool"
        },
        {
          "internalType": "string",
          "name": "accessKey",
          "type": "string"
        },
        {
          "internalType": "uint256",
          "name": "grantedAt",
          "type": "uint256"
        }
      ],
      "stateMutability": "view",
      "type": "function",
      "constant": true
    },
    {
      "inputs": [
        {
          "internalType": "address",
          "name": "",
          "type": "address"
        },
        {
          "internalType": "uint256",
          "name": "",
          "type": "uint256"
        }
      ],
      "name": "accessedFiles",
      "outputs": [
        {
          "internalType": "string",
          "name": "",
          "type": "string"
        }
      ],
      "stateMutability": "view",
      "type": "function",
      "constant": true
    },
    {
      "inputs": [
        {
          "internalType": "string",
          "name": "",
          "type": "string"
        },
        {
          "internalType": "uint256",
          "name": "",
          "type": "uint256"
        }
      ],
      "name": "fileAccessList",
      "outputs": [
        {
          "internalType": "address",
          "name": "",
          "type": "address"
        }
      ],
      "stateMutability": "view",
      "type": "function",
      "constant": true
    },
    {
      "inputs": [
        {
          "internalType": "string",
          "name": "",
          "type": "string"
        },
        {
          "internalType": "uint256",
          "name": "",
          "type": "uint256"
        }
      ],
      "name": "fileShareHistory",
      "outputs": [
        {
          "internalType": "address",
          "name": "originalOwner",
          "type": "address"
        },
        {
          "internalType": "address",
          "name": "sharedBy",
          "type": "address"
        },
        {
          "internalType": "address",
          "name": "sharedTo",
          "type": "address"
        },
        {
          "internalType": "uint256",
          "name": "sharedAt",
          "type": "uint256"
        }
      ],
      "stateMutability": "view",
      "type": "function",
      "constant": true
    },
    {
      "inputs": [
        {
          "internalType": "string",
          "name": "",
          "type": "string"
        }
      ],
      "name": "files",
      "outputs": [
        {
          "internalType": "string",
          "name": "ipfsHash",
          "type": "string"
        },
        {
          "internalType": "string",
          "name": "fileName",
          "type": "string"
        },
        {
          "internalType": "string",
          "name": "description",
          "type": "string"
        },
        {
          "internalType": "uint256",
          "name": "timestamp",
          "type": "uint256"
        },
        {
          "internalType": "address",
          "name": "owner",
          "type": "address"
        },
        {
          "internalType": "bool",
          "name": "exists",
          "type": "bool"
        }
      ],
      "stateMutability": "view",
      "type": "function",
      "constant": true
    },
    {
      "inputs": [
        {
          "internalType": "address",
          "name": "",
          "type": "address"
        },
        {
          "internalType": "uint256",
          "name": "",
          "type": "uint256"
        }
      ],
      "name": "userFiles",
      "outputs": [
        {
          "internalType": "string",
          "name": "",
          "type": "string"
        }
      ],
      "stateMutability": "view",
      "type": "function",
      "constant": true
    },
    {
      "inputs": [
        {
          "internalType": "string",
          "name": "ipfsHash",
          "type": "string"
        },
        {
          "internalType": "string",
          "name": "fileName",
          "type": "string"
        },
        {
          "internalType": "string",
          "name": "description",
          "type": "string"
        }
      ],
      "name": "uploadFile",
      "outputs": [],
      "stateMutability": "nonpayable",
      "type": "function"
    },
    {
      "inputs": [
        {
          "internalType": "string",
          "name": "ipfsHash",
          "type": "string"
        },
        {
          "internalType": "address",
          "name": "receiver",
          "type": "address"
        },
        {
          "internalType": "string",
          "name": "accessKey",
          "type": "string"
        }
      ],
      "name": "grantAccess",
      "outputs": [],
      "stateMutability": "nonpayable",
      "type": "function"
    },
    {
      "inputs": [
        {
          "internalType": "string",
          "name": "ipfsHash",
          "type": "string"
        },
        {
          "internalType": "address",
          "name": "user",
          "type": "address"
        }
      ],
      "name": "revokeAccess",
      "outputs": [],
      "stateMutability": "nonpayable",
      "type": "function"
    },
    {
      "inputs": [
        {
          "internalType": "string",
          "name": "ipfsHash",
          "type": "string"
        },
        {
          "internalType": "address",
          "name": "user",
          "type": "address"
        },
        {
          "internalType": "string",
          "name": "accessKey",
          "type": "string"
        }
      ],
      "name": "verifyAccess",
      "outputs": [
        {
          "internalType": "bool",
          "name": "",
          "type": "bool"
        }
      ],
      "stateMutability": "view",
      "type": "function",
      "constant": true
    },
    {
      "inputs": [
        {
          "internalType": "string",
          "name": "ipfsHash",
          "type": "string"
        },
        {
          "internalType": "address",
          "name": "user",
          "type": "address"
        }
      ],
      "name": "recordFileAccess",
      "outputs": [],
      "stateMutability": "nonpayable",
      "type": "function"
    },
    {
      "inputs": [
        {
          "internalType": "address",
          "name": "user",
          "type": "address"
        }
      ],
      "name": "getAccessedFiles",
      "outputs": [
        {
          "internalType": "string[]",
          "name": "",
          "type": "string[]"
        }
      ],
      "stateMutability": "view",
      "type": "function",
      "constant": true
    },
    {
      "inputs": [
        {
          "internalType": "address",
          "name": "user",
          "type": "address"
        }
      ],
      "name": "getFilesByUser",
      "outputs": [
        {
          "internalType": "string[]",
          "name": "",
          "type": "string[]"
        }
      ],
      "stateMutability": "view",
      "type": "function",
      "constant": true
    },
    {
      "inputs": [
        {
          "internalType": "string",
          "name": "ipfsHash",
          "type": "string"
        }
      ],
      "name": "getFileDetails",
      "outputs": [
        {
          "internalType": "string",
          "name": "fileName",
          "type": "string"
        },
        {
          "internalType": "string",
          "name": "description",
          "type": "string"
        },
        {
          "internalType": "uint256",
          "name": "timestamp",
          "type": "uint256"
        },
        {
          "internalType": "address",
          "name": "owner",
          "type": "address"
        }
      ],
      "stateMutability": "view",
      "type": "function",
      "constant": true
    },
    {
      "inputs": [
        {
          "internalType": "string",
          "name": "ipfsHash",
          "type": "string"
        }
      ],
      "name": "getFileAccessList",
      "outputs": [
        {
          "internalType": "address[]",
          "name": "",
          "type": "address[]"
        }
      ],
      "stateMutability": "view",
      "type": "function",
      "constant": true
    },
    {
      "inputs": [
        {
          "internalType": "string",
          "name": "ipfsHash",
          "type": "string"
        },
        {
          "internalType": "address",
          "name": "user",
          "type": "address"
        }
      ],
      "name": "getAccessDetails",
      "outputs": [
        {
          "internalType": "bool",
          "name": "hasAccess",
          "type": "bool"
        },
        {
          "internalType": "uint256",
          "name": "grantedAt",
          "type": "uint256"
        }
      ],
      "stateMutability": "view",
      "type": "function",
      "constant": true
    },
    {
      "inputs": [
        {
          "internalType": "string",
          "name": "ipfsHash",
          "type": "string"
        }
      ],
      "name": "getFileShareHistory",
      "outputs": [
        {
          "internalType": "address[]",
          "name": "originalOwners",
          "type": "address[]"
        },
        {
          "internalType": "address[]",
          "name": "sharedBy",
          "type": "address[]"
        },
        {
          "internalType": "address[]",
          "name": "sharedTo",
          "type": "address[]"
        },
        {
          "internalType": "uint256[]",
          "name": "sharedAt",
          "type": "uint256[]"
        }
      ],
      "stateMutability": "view",
      "type": "function",
      "constant": true
    }
  ],
  "bytecode": "0x608060405234801561001057600080fd5b50614685806100206000396000f3fe608060405234801561001057600080fd5b506004361061010a5760003560e01c8063718f38a6116100a2578063dc8b6b4511610071578063dc8b6b451461031f578063dfe0b5fe1461034f578063e77557611461036b578063f3b75def146103a0578063fe29962f146103d05761010a565b8063718f38a6146102705780637f44d3da146102a057806392bb481a146102d3578063b96986ca146102ef5761010a565b80633fb9e6b5116100de5780633fb9e6b5146101c157806350ef15e6146101f15780635d98dde81461022357806366d1951a1461023f5761010a565b806251f1941461010f578063049575051461012b5780630f2daf901461015e578063300332d314610191575b600080fd5b61012960048036038101906101249190613518565b610400565b005b610145600480360381019061014091906134d7565b610789565b6040516101559493929190614062565b60405180910390f35b61017860048036038101906101739190613682565b610a80565b6040516101889493929190613e19565b60405180910390f35b6101ab60048036038101906101a69190613472565b610b43565b6040516101b89190613ee1565b60405180910390f35b6101db60048036038101906101d691906134d7565b610f57565b6040516101e89190613e5e565b60405180910390f35b61020b60048036038101906102069190613518565b611073565b60405161021a93929190613f1e565b60405180910390f35b61023d6004803603810190610238919061356c565b611155565b005b61025960048036038101906102549190613518565b611a14565b604051610267929190613f5c565b60405180910390f35b61028a6004803603810190610285919061349b565b611bbe565b6040516102979190613f85565b60405180910390f35b6102ba60048036038101906102b591906134d7565b611c77565b6040516102ca9493929190613e80565b60405180910390f35b6102ed60048036038101906102e891906135eb565b612315565b005b61030960048036038101906103049190613682565b612665565b6040516103169190613dfe565b60405180910390f35b6103396004803603810190610334919061349b565b6126c9565b6040516103469190613f85565b60405180910390f35b61036960048036038101906103649190613518565b612782565b005b610385600480360381019061038091906134d7565b612c87565b60405161039796959493929190613fa7565b60405180910390f35b6103ba60048036038101906103b59190613472565b612e9e565b6040516103c79190613ee1565b60405180910390f35b6103ea60048036038101906103e5919061356c565b612fb6565b6040516103f79190613f03565b60405180910390f35b816000816040516104119190613de7565b908152602001604051809103902060040160149054906101000a900460ff1661046f576040517f08c379a000000000000000000000000000000000000000000000000000000000815260040161046690614195565b60405180910390fd5b8173ffffffffffffffffffffffffffffffffffffffff166000846040516104969190613de7565b908152602001604051809103902060040160009054906101000a900473ffffffffffffffffffffffffffffffffffffffff1673ffffffffffffffffffffffffffffffffffffffff16148061055257506002836040516104f59190613de7565b908152602001604051809103902060008373ffffffffffffffffffffffffffffffffffffffff1673ffffffffffffffffffffffffffffffffffffffff16815260200190815260200160002060000160009054906101000a900460ff165b610591576040517f08c379a000000000000000000000000000000000000000000000000000000000815260040161058890614255565b60405180910390fd5b6000805b600460008573ffffffffffffffffffffffffffffffffffffffff1673ffffffffffffffffffffffffffffffffffffffff1681526020019081526020016000208054905081101561069f578480519060200120600460008673ffffffffffffffffffffffffffffffffffffffff1673ffffffffffffffffffffffffffffffffffffffff168152602001908152602001600020828154811061065e577f4e487b7100000000000000000000000000000000000000000000000000000000600052603260045260246000fd5b906000526020600020016040516106759190613dd0565b6040518091039020141561068c576001915061069f565b80806106979061453a565b915050610595565b508061078357600460008473ffffffffffffffffffffffffffffffffffffffff1673ffffffffffffffffffffffffffffffffffffffff1681526020019081526020016000208490806001815401808255809150506001900390600052602060002001600090919091909150908051906020019061071d92919061333d565b508273ffffffffffffffffffffffffffffffffffffffff16846040516107439190613de7565b60405180910390207f83443ced11922e0dd293ed582f0d62c0ea28d53b84cb918f8098e73509686fb04260405161077a9190614275565b60405180910390a35b50505050565b606080600080846000816040516107a09190613de7565b908152602001604051809103902060040160149054906101000a900460ff166107fe576040517f08c379a00000000000000000000000000000000000000000000000000000000081526004016107f590614195565b60405180910390fd5b6000808760405161080f9190613de7565b90815260200160405180910390206040518060c001604052908160008201805461083890614508565b80601f016020809104026020016040519081016040528092919081815260200182805461086490614508565b80156108b15780601f10610886576101008083540402835291602001916108b1565b820191906000526020600020905b81548152906001019060200180831161089457829003601f168201915b505050505081526020016001820180546108ca90614508565b80601f01602080910402602001604051908101604052809291908181526020018280546108f690614508565b80156109435780601f1061091857610100808354040283529160200191610943565b820191906000526020600020905b81548152906001019060200180831161092657829003601f168201915b5050505050815260200160028201805461095c90614508565b80601f016020809104026020016040519081016040528092919081815260200182805461098890614508565b80156109d55780601f106109aa576101008083540402835291602001916109d5565b820191906000526020600020905b8154815290600101906020018083116109b857829003601f168201915b50505050508152602001600382015481526020016004820160009054906101000a900473ffffffffffffffffffffffffffffffffffffffff1673ffffffffffffffffffffffffffffffffffffffff1673ffffffffffffffffffffffffffffffffffffffff1681526020016004820160149054906101000a900460ff16151515158152505090508060200151816040015182606001518360800151955095509550955050509193509193565b6005828051602081018201805184825260208301602085012081835280955050505050508181548110610ab257600080fd5b9060005260206000209060040201600091509150508060000160009054906101000a900473ffffffffffffffffffffffffffffffffffffffff16908060010160009054906101000a900473ffffffffffffffffffffffffffffffffffffffff16908060020160009054906101000a900473ffffffffffffffffffffffffffffffffffffffff16908060030154905084565b60606000600160008473ffffffffffffffffffffffffffffffffffffffff1673ffffffffffffffffffffffffffffffffffffffff168152602001908152602001600020805480602002602001604051908101604052809291908181526020016000905b82821015610c52578382906000526020600020018054610bc590614508565b80601f0160208091040260200160405190810160405280929190818152602001828054610bf190614508565b8015610c3e5780601f10610c1357610100808354040283529160200191610c3e565b820191906000526020600020905b815481529060010190602001808311610c2157829003601f168201915b505050505081526020019060010190610ba6565b5050505090506000600460008573ffffffffffffffffffffffffffffffffffffffff1673ffffffffffffffffffffffffffffffffffffffff168152602001908152602001600020805480602002602001604051908101604052809291908181526020016000905b82821015610d65578382906000526020600020018054610cd890614508565b80601f0160208091040260200160405190810160405280929190818152602001828054610d0490614508565b8015610d515780601f10610d2657610100808354040283529160200191610d51565b820191906000526020600020905b815481529060010190602001808311610d3457829003601f168201915b505050505081526020019060010190610cb9565b505050509050600081518351610d7b91906143f4565b905060008167ffffffffffffffff811115610dbf577f4e487b7100000000000000000000000000000000000000000000000000000000600052604160045260246000fd5b604051908082528060200260200182016040528015610df257816020015b6060815260200190600190039081610ddd5790505b50905060005b8451811015610e9957848181518110610e3a577f4e487b7100000000000000000000000000000000000000000000000000000000600052603260045260246000fd5b6020026020010151828281518110610e7b577f4e487b7100000000000000000000000000000000000000000000000000000000600052603260045260246000fd5b60200260200101819052508080610e919061453a565b915050610df8565b5060005b8351811015610f4a57838181518110610edf577f4e487b7100000000000000000000000000000000000000000000000000000000600052603260045260246000fd5b602002602001015182828751610ef591906143f4565b81518110610f2c577f4e487b7100000000000000000000000000000000000000000000000000000000600052603260045260246000fd5b60200260200101819052508080610f429061453a565b915050610e9d565b5080945050505050919050565b606081600081604051610f6a9190613de7565b908152602001604051809103902060040160149054906101000a900460ff16610fc8576040517f08c379a0000000000000000000000000000000000000000000000000000000008152600401610fbf90614195565b60405180910390fd5b600383604051610fd89190613de7565b908152602001604051809103902080548060200260200160405190810160405280929190818152602001828054801561106657602002820191906000526020600020905b8160009054906101000a900473ffffffffffffffffffffffffffffffffffffffff1673ffffffffffffffffffffffffffffffffffffffff168152602001906001019080831161101c575b5050505050915050919050565b600282805160208101820180518482526020830160208501208183528095505050505050602052806000526040600020600091509150508060000160009054906101000a900460ff16908060010180546110cc90614508565b80601f01602080910402602001604051908101604052809291908181526020018280546110f890614508565b80156111455780601f1061111a57610100808354040283529160200191611145565b820191906000526020600020905b81548152906001019060200180831161112857829003601f168201915b5050505050908060020154905083565b826000816040516111669190613de7565b908152602001604051809103902060040160149054906101000a900460ff166111c4576040517f08c379a00000000000000000000000000000000000000000000000000000000081526004016111bb90614195565b60405180910390fd5b816004815114611209576040517f08c379a0000000000000000000000000000000000000000000000000000000008152600401611200906141d5565b60405180910390fd5b60005b600481101561130b576030828281518110611250577f4e487b7100000000000000000000000000000000000000000000000000000000600052603260045260246000fd5b602001015160f81c60f81b60f81c60ff16101580156112b9575060398282815181106112a5577f4e487b7100000000000000000000000000000000000000000000000000000000600052603260045260246000fd5b602001015160f81c60f81b60f81c60ff1611155b6112f8576040517f08c379a00000000000000000000000000000000000000000000000000000000081526004016112ef906141b5565b60405180910390fd5b80806113039061453a565b91505061120c565b50600073ffffffffffffffffffffffffffffffffffffffff168473ffffffffffffffffffffffffffffffffffffffff16141561137c576040517f08c379a000000000000000000000000000000000000000000000000000000000815260040161137390614175565b60405180910390fd5b3373ffffffffffffffffffffffffffffffffffffffff168473ffffffffffffffffffffffffffffffffffffffff1614156113eb576040517f08c379a00000000000000000000000000000000000000000000000000000000081526004016113e290614115565b60405180910390fd5b6002856040516113fb9190613de7565b908152602001604051809103902060008573ffffffffffffffffffffffffffffffffffffffff1673ffffffffffffffffffffffffffffffffffffffff16815260200190815260200160002060000160009054906101000a900460ff1615611497576040517f08c379a000000000000000000000000000000000000000000000000000000000815260040161148e906140d5565b60405180910390fd5b60003373ffffffffffffffffffffffffffffffffffffffff166000876040516114c09190613de7565b908152602001604051809103902060040160009054906101000a900473ffffffffffffffffffffffffffffffffffffffff1673ffffffffffffffffffffffffffffffffffffffff1614905060008161184e5760006002886040516115249190613de7565b908152602001604051809103902060003373ffffffffffffffffffffffffffffffffffffffff1673ffffffffffffffffffffffffffffffffffffffff1681526020019081526020016000206040518060600160405290816000820160009054906101000a900460ff161515151581526020016001820180546115a590614508565b80601f01602080910402602001604051908101604052809291908181526020018280546115d190614508565b801561161e5780601f106115f35761010080835404028352916020019161161e565b820191906000526020600020905b81548152906001019060200180831161160157829003601f168201915b505050505081526020016002820154815250509050806000015191508161167a576040517f08c379a0000000000000000000000000000000000000000000000000000000008152600401611671906140f5565b60405180910390fd5b6000604051806080016040528060008b6040516116979190613de7565b908152602001604051809103902060040160009054906101000a900473ffffffffffffffffffffffffffffffffffffffff1673ffffffffffffffffffffffffffffffffffffffff1681526020013373ffffffffffffffffffffffffffffffffffffffff1681526020018973ffffffffffffffffffffffffffffffffffffffff1681526020014281525090506005896040516117329190613de7565b908152602001604051809103902081908060018154018082558091505060019003906000526020600020906004020160009091909190915060008201518160000160006101000a81548173ffffffffffffffffffffffffffffffffffffffff021916908373ffffffffffffffffffffffffffffffffffffffff16021790555060208201518160010160006101000a81548173ffffffffffffffffffffffffffffffffffffffff021916908373ffffffffffffffffffffffffffffffffffffffff16021790555060408201518160020160006101000a81548173ffffffffffffffffffffffffffffffffffffffff021916908373ffffffffffffffffffffffffffffffffffffffff16021790555060608201518160030155505050505b60405180606001604052806001151581526020018681526020014281525060028860405161187c9190613de7565b908152602001604051809103902060008873ffffffffffffffffffffffffffffffffffffffff1673ffffffffffffffffffffffffffffffffffffffff16815260200190815260200160002060008201518160000160006101000a81548160ff021916908315150217905550602082015181600101908051906020019061190392919061333d565b50604082015181600201559050506003876040516119219190613de7565b9081526020016040518091039020869080600181540180825580915050600190039060005260206000200160009091909190916101000a81548173ffffffffffffffffffffffffffffffffffffffff021916908373ffffffffffffffffffffffffffffffffffffffff1602179055508573ffffffffffffffffffffffffffffffffffffffff163373ffffffffffffffffffffffffffffffffffffffff16886040516119cc9190613de7565b60405180910390207f822076acf43d1c461073057e021366b630aa0dd30fb0442d7ad8dbee1f84a8ba42604051611a039190614275565b60405180910390a450505050505050565b60008083600081604051611a289190613de7565b908152602001604051809103902060040160149054906101000a900460ff16611a86576040517f08c379a0000000000000000000000000000000000000000000000000000000008152600401611a7d90614195565b60405180910390fd5b6000600286604051611a989190613de7565b908152602001604051809103902060008673ffffffffffffffffffffffffffffffffffffffff1673ffffffffffffffffffffffffffffffffffffffff1681526020019081526020016000206040518060600160405290816000820160009054906101000a900460ff16151515158152602001600182018054611b1990614508565b80601f0160208091040260200160405190810160405280929190818152602001828054611b4590614508565b8015611b925780601f10611b6757610100808354040283529160200191611b92565b820191906000526020600020905b815481529060010190602001808311611b7557829003601f168201915b505050505081526020016002820154815250509050806000015181604001519350935050509250929050565b60016020528160005260406000208181548110611bda57600080fd5b90600052602060002001600091509150508054611bf690614508565b80601f0160208091040260200160405190810160405280929190818152602001828054611c2290614508565b8015611c6f5780601f10611c4457610100808354040283529160200191611c6f565b820191906000526020600020905b815481529060010190602001808311611c5257829003601f168201915b505050505081565b60608060608084600081604051611c8e9190613de7565b908152602001604051809103902060040160149054906101000a900460ff16611cec576040517f08c379a0000000000000000000000000000000000000000000000000000000008152600401611ce390614195565b60405180910390fd5b6000600587604051611cfe9190613de7565b9081526020016040518091039020805480602002602001604051908101604052809291908181526020016000905b82821015611e6a57838290600052602060002090600402016040518060800160405290816000820160009054906101000a900473ffffffffffffffffffffffffffffffffffffffff1673ffffffffffffffffffffffffffffffffffffffff1673ffffffffffffffffffffffffffffffffffffffff1681526020016001820160009054906101000a900473ffffffffffffffffffffffffffffffffffffffff1673ffffffffffffffffffffffffffffffffffffffff1673ffffffffffffffffffffffffffffffffffffffff1681526020016002820160009054906101000a900473ffffffffffffffffffffffffffffffffffffffff1673ffffffffffffffffffffffffffffffffffffffff1673ffffffffffffffffffffffffffffffffffffffff16815260200160038201548152505081526020019060010190611d2c565b5050505090506000815190508067ffffffffffffffff811115611eb6577f4e487b7100000000000000000000000000000000000000000000000000000000600052604160045260246000fd5b604051908082528060200260200182016040528015611ee45781602001602082028036833780820191505090505b5096508067ffffffffffffffff811115611f27577f4e487b7100000000000000000000000000000000000000000000000000000000600052604160045260246000fd5b604051908082528060200260200182016040528015611f555781602001602082028036833780820191505090505b5095508067ffffffffffffffff811115611f98577f4e487b7100000000000000000000000000000000000000000000000000000000600052604160045260246000fd5b604051908082528060200260200182016040528015611fc65781602001602082028036833780820191505090505b5094508067ffffffffffffffff811115612009577f4e487b7100000000000000000000000000000000000000000000000000000000600052604160045260246000fd5b6040519080825280602002602001820160405280156120375781602001602082028036833780820191505090505b50935060005b8181101561230a5782818151811061207e577f4e487b7100000000000000000000000000000000000000000000000000000000600052603260045260246000fd5b6020026020010151600001518882815181106120c3577f4e487b7100000000000000000000000000000000000000000000000000000000600052603260045260246000fd5b602002602001019073ffffffffffffffffffffffffffffffffffffffff16908173ffffffffffffffffffffffffffffffffffffffff1681525050828181518110612136577f4e487b7100000000000000000000000000000000000000000000000000000000600052603260045260246000fd5b60200260200101516020015187828151811061217b577f4e487b7100000000000000000000000000000000000000000000000000000000600052603260045260246000fd5b602002602001019073ffffffffffffffffffffffffffffffffffffffff16908173ffffffffffffffffffffffffffffffffffffffff16815250508281815181106121ee577f4e487b7100000000000000000000000000000000000000000000000000000000600052603260045260246000fd5b602002602001015160400151868281518110612233577f4e487b7100000000000000000000000000000000000000000000000000000000600052603260045260246000fd5b602002602001019073ffffffffffffffffffffffffffffffffffffffff16908173ffffffffffffffffffffffffffffffffffffffff16815250508281815181106122a6577f4e487b7100000000000000000000000000000000000000000000000000000000600052603260045260246000fd5b6020026020010151606001518582815181106122eb577f4e487b7100000000000000000000000000000000000000000000000000000000600052603260045260246000fd5b60200260200101818152505080806123029061453a565b91505061203d565b505050509193509193565b6000835111612359576040517f08c379a0000000000000000000000000000000000000000000000000000000008152600401612350906140b5565b60405180910390fd5b600082511161239d576040517f08c379a000000000000000000000000000000000000000000000000000000000815260040161239490614135565b60405180910390fd5b60008151116123e1576040517f08c379a00000000000000000000000000000000000000000000000000000000081526004016123d890614155565b60405180910390fd5b6000836040516123f19190613de7565b908152602001604051809103902060040160149054906101000a900460ff1615612450576040517f08c379a000000000000000000000000000000000000000000000000000000000815260040161244790614215565b60405180910390fd5b6040518060c001604052808481526020018381526020018281526020014281526020013373ffffffffffffffffffffffffffffffffffffffff168152602001600115158152506000846040516124a69190613de7565b908152602001604051809103902060008201518160000190805190602001906124d092919061333d565b5060208201518160010190805190602001906124ed92919061333d565b50604082015181600201908051906020019061250a92919061333d565b506060820151816003015560808201518160040160006101000a81548173ffffffffffffffffffffffffffffffffffffffff021916908373ffffffffffffffffffffffffffffffffffffffff16021790555060a08201518160040160146101000a81548160ff021916908315150217905550905050600160003373ffffffffffffffffffffffffffffffffffffffff1673ffffffffffffffffffffffffffffffffffffffff168152602001908152602001600020839080600181540180825580915050600190039060005260206000200160009091909190915090805190602001906125f792919061333d565b503373ffffffffffffffffffffffffffffffffffffffff168360405161261d9190613de7565b60405180910390207fa1a938fd6bd0dea8b30340853b3112191a4ae8746e874032060743872ae4fcde8484426040516126589392919061401d565b60405180910390a3505050565b600382805160208101820180518482526020830160208501208183528095505050505050818154811061269757600080fd5b906000526020600020016000915091509054906101000a900473ffffffffffffffffffffffffffffffffffffffff1681565b600460205281600052604060002081815481106126e557600080fd5b9060005260206000200160009150915050805461270190614508565b80601f016020809104026020016040519081016040528092919081815260200182805461272d90614508565b801561277a5780601f1061274f5761010080835404028352916020019161277a565b820191906000526020600020905b81548152906001019060200180831161275d57829003601f168201915b505050505081565b816000816040516127939190613de7565b908152602001604051809103902060040160149054906101000a900460ff166127f1576040517f08c379a00000000000000000000000000000000000000000000000000000000081526004016127e890614195565b60405180910390fd5b823373ffffffffffffffffffffffffffffffffffffffff166000826040516128199190613de7565b908152602001604051809103902060040160009054906101000a900473ffffffffffffffffffffffffffffffffffffffff1673ffffffffffffffffffffffffffffffffffffffff16146128a1576040517f08c379a000000000000000000000000000000000000000000000000000000000815260040161289890614235565b60405180910390fd5b6002846040516128b19190613de7565b908152602001604051809103902060008473ffffffffffffffffffffffffffffffffffffffff1673ffffffffffffffffffffffffffffffffffffffff16815260200190815260200160002060000160009054906101000a900460ff1661294c576040517f08c379a0000000000000000000000000000000000000000000000000000000008152600401612943906141f5565b60405180910390fd5b600060028560405161295e9190613de7565b908152602001604051809103902060008573ffffffffffffffffffffffffffffffffffffffff1673ffffffffffffffffffffffffffffffffffffffff16815260200190815260200160002060000160006101000a81548160ff02191690831515021790555060006003856040516129d59190613de7565b9081526020016040518091039020905060005b8180549050811015612c04578473ffffffffffffffffffffffffffffffffffffffff16828281548110612a44577f4e487b7100000000000000000000000000000000000000000000000000000000600052603260045260246000fd5b9060005260206000200160009054906101000a900473ffffffffffffffffffffffffffffffffffffffff1673ffffffffffffffffffffffffffffffffffffffff161415612bf1578160018380549050612a9d919061444a565b81548110612ad4577f4e487b7100000000000000000000000000000000000000000000000000000000600052603260045260246000fd5b9060005260206000200160009054906101000a900473ffffffffffffffffffffffffffffffffffffffff16828281548110612b38577f4e487b7100000000000000000000000000000000000000000000000000000000600052603260045260246000fd5b9060005260206000200160006101000a81548173ffffffffffffffffffffffffffffffffffffffff021916908373ffffffffffffffffffffffffffffffffffffffff16021790555081805480612bb7577f4e487b7100000000000000000000000000000000000000000000000000000000600052603160045260246000fd5b6001900381819060005260206000200160006101000a81549073ffffffffffffffffffffffffffffffffffffffff02191690559055612c04565b8080612bfc9061453a565b9150506129e8565b508373ffffffffffffffffffffffffffffffffffffffff163373ffffffffffffffffffffffffffffffffffffffff1686604051612c419190613de7565b60405180910390207ffca9e5383feff2471021f2af92b9704199954a3966435d939edeaf684d47591b42604051612c789190614275565b60405180910390a45050505050565b600081805160208101820180518482526020830160208501208183528095505050505050600091509050806000018054612cc090614508565b80601f0160208091040260200160405190810160405280929190818152602001828054612cec90614508565b8015612d395780601f10612d0e57610100808354040283529160200191612d39565b820191906000526020600020905b815481529060010190602001808311612d1c57829003601f168201915b505050505090806001018054612d4e90614508565b80601f0160208091040260200160405190810160405280929190818152602001828054612d7a90614508565b8015612dc75780601f10612d9c57610100808354040283529160200191612dc7565b820191906000526020600020905b815481529060010190602001808311612daa57829003601f168201915b505050505090806002018054612ddc90614508565b80601f0160208091040260200160405190810160405280929190818152602001828054612e0890614508565b8015612e555780601f10612e2a57610100808354040283529160200191612e55565b820191906000526020600020905b815481529060010190602001808311612e3857829003601f168201915b5050505050908060030154908060040160009054906101000a900473ffffffffffffffffffffffffffffffffffffffff16908060040160149054906101000a900460ff16905086565b6060600460008373ffffffffffffffffffffffffffffffffffffffff1673ffffffffffffffffffffffffffffffffffffffff168152602001908152602001600020805480602002602001604051908101604052809291908181526020016000905b82821015612fab578382906000526020600020018054612f1e90614508565b80601f0160208091040260200160405190810160405280929190818152602001828054612f4a90614508565b8015612f975780601f10612f6c57610100808354040283529160200191612f97565b820191906000526020600020905b815481529060010190602001808311612f7a57829003601f168201915b505050505081526020019060010190612eff565b505050509050919050565b600083600081604051612fc99190613de7565b908152602001604051809103902060040160149054906101000a900460ff16613027576040517f08c379a000000000000000000000000000000000000000000000000000000000815260040161301e90614195565b60405180910390fd5b82600481511461306c576040517f08c379a0000000000000000000000000000000000000000000000000000000008152600401613063906141d5565b60405180910390fd5b60005b600481101561316e5760308282815181106130b3577f4e487b7100000000000000000000000000000000000000000000000000000000600052603260045260246000fd5b602001015160f81c60f81b60f81c60ff161015801561311c57506039828281518110613108577f4e487b7100000000000000000000000000000000000000000000000000000000600052603260045260246000fd5b602001015160f81c60f81b60f81c60ff1611155b61315b576040517f08c379a0000000000000000000000000000000000000000000000000000000008152600401613152906141b5565b60405180910390fd5b80806131669061453a565b91505061306f565b508473ffffffffffffffffffffffffffffffffffffffff166000876040516131969190613de7565b908152602001604051809103902060040160009054906101000a900473ffffffffffffffffffffffffffffffffffffffff1673ffffffffffffffffffffffffffffffffffffffff1614156131ed5760019250613334565b60006002876040516131ff9190613de7565b908152602001604051809103902060008773ffffffffffffffffffffffffffffffffffffffff1673ffffffffffffffffffffffffffffffffffffffff1681526020019081526020016000206040518060600160405290816000820160009054906101000a900460ff1615151515815260200160018201805461328090614508565b80601f01602080910402602001604051908101604052809291908181526020018280546132ac90614508565b80156132f95780601f106132ce576101008083540402835291602001916132f9565b820191906000526020600020905b8154815290600101906020018083116132dc57829003601f168201915b5050505050815260200160028201548152505090508060000151801561333057508480519060200120816020015180519060200120145b9350505b50509392505050565b82805461334990614508565b90600052602060002090601f01602090048101928261336b57600085556133b2565b82601f1061338457805160ff19168380011785556133b2565b828001600101855582156133b2579182015b828111156133b1578251825591602001919060010190613396565b5b5090506133bf91906133c3565b5090565b5b808211156133dc5760008160009055506001016133c4565b5090565b60006133f36133ee846142c1565b614290565b90508281526020810184848401111561340b57600080fd5b6134168482856144c6565b509392505050565b60008135905061342d81614621565b92915050565b600082601f83011261344457600080fd5b81356134548482602086016133e0565b91505092915050565b60008135905061346c81614638565b92915050565b60006020828403121561348457600080fd5b60006134928482850161341e565b91505092915050565b600080604083850312156134ae57600080fd5b60006134bc8582860161341e565b92505060206134cd8582860161345d565b9150509250929050565b6000602082840312156134e957600080fd5b600082013567ffffffffffffffff81111561350357600080fd5b61350f84828501613433565b91505092915050565b6000806040838503121561352b57600080fd5b600083013567ffffffffffffffff81111561354557600080fd5b61355185828601613433565b92505060206135628582860161341e565b9150509250929050565b60008060006060848603121561358157600080fd5b600084013567ffffffffffffffff81111561359b57600080fd5b6135a786828701613433565b93505060206135b88682870161341e565b925050604084013567ffffffffffffffff8111156135d557600080fd5b6135e186828701613433565b9150509250925092565b60008060006060848603121561360057600080fd5b600084013567ffffffffffffffff81111561361a57600080fd5b61362686828701613433565b935050602084013567ffffffffffffffff81111561364357600080fd5b61364f86828701613433565b925050604084013567ffffffffffffffff81111561366c57600080fd5b61367886828701613433565b9150509250925092565b6000806040838503121561369557600080fd5b600083013567ffffffffffffffff8111156136af57600080fd5b6136bb85828601613433565b92505060206136cc8582860161345d565b9150509250929050565b60006136e2838361371a565b60208301905092915050565b60006136fa83836138f7565b905092915050565b600061370e8383613db2565b60208301905092915050565b6137238161447e565b82525050565b6137328161447e565b82525050565b600061374382614336565b61374d8185614389565b9350613758836142f1565b8060005b8381101561378957815161377088826136d6565b975061377b83614362565b92505060018101905061375c565b5085935050505092915050565b60006137a182614341565b6137ab818561439a565b9350836020820285016137bd85614301565b8060005b858110156137f957848403895281516137da85826136ee565b94506137e58361436f565b925060208a019950506001810190506137c1565b50829750879550505050505092915050565b60006138168261434c565b61382081856143ab565b935061382b83614311565b8060005b8381101561385c5781516138438882613702565b975061384e8361437c565b92505060018101905061382f565b5085935050505092915050565b61387281614490565b82525050565b6000815461388581614508565b61388f81866143bc565b945060018216600081146138aa57600181146138bb576138ee565b60ff198316865281860193506138ee565b6138c485614321565b60005b838110156138e6578154818901526001820191506020810190506138c7565b838801955050505b50505092915050565b600061390282614357565b61390c81856143c7565b935061391c8185602086016144d5565b61392581614610565b840191505092915050565b600061393b82614357565b61394581856143d8565b93506139558185602086016144d5565b61395e81614610565b840191505092915050565b600061397482614357565b61397e81856143e9565b935061398e8185602086016144d5565b80840191505092915050565b60006139a76011836143d8565b91507f496e76616c6964204950465320686173680000000000000000000000000000006000830152602082019050919050565b60006139e76016836143d8565b91507f41636365737320616c7265616479206772616e746564000000000000000000006000830152602082019050919050565b6000613a276028836143d8565b91507f596f7520646f6e277420686176652061636365737320746f207368617265207460008301527f6869732066696c650000000000000000000000000000000000000000000000006020830152604082019050919050565b6000613a8d601f836143d8565b91507f43616e6e6f74206772616e742061636365737320746f20796f757273656c66006000830152602082019050919050565b6000613acd6018836143d8565b91507f46696c656e616d652063616e6e6f7420626520656d70747900000000000000006000830152602082019050919050565b6000613b0d601b836143d8565b91507f4465736372697074696f6e2063616e6e6f7420626520656d70747900000000006000830152602082019050919050565b6000613b4d6018836143d8565b91507f496e76616c6964207265636569766572206164647265737300000000000000006000830152602082019050919050565b6000613b8d6013836143d8565b91507f46696c6520646f6573206e6f74206578697374000000000000000000000000006000830152602082019050919050565b6000613bcd6024836143d8565b91507f4b6579206d75737420636f6e7461696e206f6e6c79206e756d6572696320646960008301527f67697473000000000000000000000000000000000000000000000000000000006020830152604082019050919050565b6000613c33601c836143d8565b91507f4b6579206d7573742062652065786163746c79203420646967697473000000006000830152602082019050919050565b6000613c736013836143d8565b91507f4e6f2061636365737320746f207265766f6b65000000000000000000000000006000830152602082019050919050565b6000613cb36013836143d8565b91507f46696c6520616c726561647920657869737473000000000000000000000000006000830152602082019050919050565b6000613cf36022836143d8565b91507f4f6e6c79206f776e65722063616e20706572666f726d2074686973206163746960008301527f6f6e0000000000000000000000000000000000000000000000000000000000006020830152604082019050919050565b6000613d596026836143d8565b91507f5573657220646f6573206e6f7420686176652061636365737320746f2074686960008301527f732066696c6500000000000000000000000000000000000000000000000000006020830152604082019050919050565b613dbb816144bc565b82525050565b613dca816144bc565b82525050565b6000613ddc8284613878565b915081905092915050565b6000613df38284613969565b915081905092915050565b6000602082019050613e136000830184613729565b92915050565b6000608082019050613e2e6000830187613729565b613e3b6020830186613729565b613e486040830185613729565b613e556060830184613dc1565b95945050505050565b60006020820190508181036000830152613e788184613738565b905092915050565b60006080820190508181036000830152613e9a8187613738565b90508181036020830152613eae8186613738565b90508181036040830152613ec28185613738565b90508181036060830152613ed6818461380b565b905095945050505050565b60006020820190508181036000830152613efb8184613796565b905092915050565b6000602082019050613f186000830184613869565b92915050565b6000606082019050613f336000830186613869565b8181036020830152613f458185613930565b9050613f546040830184613dc1565b949350505050565b6000604082019050613f716000830185613869565b613f7e6020830184613dc1565b9392505050565b60006020820190508181036000830152613f9f8184613930565b905092915050565b600060c0820190508181036000830152613fc18189613930565b90508181036020830152613fd58188613930565b90508181036040830152613fe98187613930565b9050613ff86060830186613dc1565b6140056080830185613729565b61401260a0830184613869565b979650505050505050565b600060608201905081810360008301526140378186613930565b9050818103602083015261404b8185613930565b905061405a6040830184613dc1565b949350505050565b6000608082019050818103600083015261407c8187613930565b905081810360208301526140908186613930565b905061409f6040830185613dc1565b6140ac6060830184613729565b95945050505050565b600060208201905081810360008301526140ce8161399a565b9050919050565b600060208201905081810360008301526140ee816139da565b9050919050565b6000602082019050818103600083015261410e81613a1a565b9050919050565b6000602082019050818103600083015261412e81613a80565b9050919050565b6000602082019050818103600083015261414e81613ac0565b9050919050565b6000602082019050818103600083015261416e81613b00565b9050919050565b6000602082019050818103600083015261418e81613b40565b9050919050565b600060208201905081810360008301526141ae81613b80565b9050919050565b600060208201905081810360008301526141ce81613bc0565b9050919050565b600060208201905081810360008301526141ee81613c26565b9050919050565b6000602082019050818103600083015261420e81613c66565b9050919050565b6000602082019050818103600083015261422e81613ca6565b9050919050565b6000602082019050818103600083015261424e81613ce6565b9050919050565b6000602082019050818103600083015261426e81613d4c565b9050919050565b600060208201905061428a6000830184613dc1565b92915050565b6000604051905081810181811067ffffffffffffffff821117156142b7576142b66145e1565b5b8060405250919050565b600067ffffffffffffffff8211156142dc576142db6145e1565b5b601f19601f8301169050602081019050919050565b6000819050602082019050919050565b6000819050602082019050919050565b6000819050602082019050919050565b60008190508160005260206000209050919050565b600081519050919050565b600081519050919050565b600081519050919050565b600081519050919050565b6000602082019050919050565b6000602082019050919050565b6000602082019050919050565b600082825260208201905092915050565b600082825260208201905092915050565b600082825260208201905092915050565b600081905092915050565b600082825260208201905092915050565b600082825260208201905092915050565b600081905092915050565b60006143ff826144bc565b915061440a836144bc565b9250827fffffffffffffffffffffffffffffffffffffffffffffffffffffffffffffffff0382111561443f5761443e614583565b5b828201905092915050565b6000614455826144bc565b9150614460836144bc565b92508282101561447357614472614583565b5b828203905092915050565b60006144898261449c565b9050919050565b60008115159050919050565b600073ffffffffffffffffffffffffffffffffffffffff82169050919050565b6000819050919050565b82818337600083830152505050565b60005b838110156144f35780820151818401526020810190506144d8565b83811115614502576000848401525b50505050565b6000600282049050600182168061452057607f821691505b60208210811415614534576145336145b2565b5b50919050565b6000614545826144bc565b91507fffffffffffffffffffffffffffffffffffffffffffffffffffffffffffffffff82141561457857614577614583565b5b600182019050919050565b7f4e487b7100000000000000000000000000000000000000000000000000000000600052601160045260246000fd5b7f4e487b7100000000000000000000000000000000000000000000000000000000600052602260045260246000fd5b7f4e487b7100000000000000000000000000000000000000000000000000000000600052604160045260246000fd5b6000601f19601f8301169050919050565b61462a8161447e565b811461463557600080fd5b50565b614641816144bc565b811461464c57600080fd5b5056fea2646970667358221220aee62fa9b9f18c1f4a3fff4d2026db3386bfb7e79b319fc9dbf7de9886dc27f064736f6c63430008000033",
  "immutableReferences": {},
  "source": "// SPDX-License-Identifier: MIT\npragma solidity ^0.8.0;\n\ncontract FileStorage {\n    struct File {\n        string ipfsHash;\n        string fileName;\n        string description;\n        uint256 timestamp;\n        address owner;\n        bool exists;  // To check if file exists\n    }\n\n    struct AccessControl {\n        bool hasAccess;\n        string accessKey;  // 4-digit key stored as a string\n        uint256 grantedAt;  // Timestamp when access was granted\n    }\n\n    // New struct to track file sharing history\n    struct ShareHistory {\n        address originalOwner;\n        address sharedBy;\n        address sharedTo;\n        uint256 sharedAt;\n    }\n\n    // Mappings\n    mapping(string => File) public files;\n    mapping(address => string[]) public userFiles;\n    mapping(string => mapping(address => AccessControl)) public accessList;\n    mapping(string => address[]) public fileAccessList;\n    mapping(address => string[]) public accessedFiles;  // New mapping to track accessed files\n    \n    // New mapping to track file sharing history\n    mapping(string => ShareHistory[]) public fileShareHistory;\n\n    // Events\n    event FileUploaded(\n        string indexed ipfsHash,\n        string fileName,\n        string description,\n        uint256 timestamp,\n        address indexed owner\n    );\n    \n    event AccessGranted(\n        string indexed ipfsHash,\n        address indexed sender,\n        address indexed receiver,\n        uint256 timestamp\n    );\n\n    event AccessRevoked(\n        string indexed ipfsHash,\n        address indexed sender,\n        address indexed receiver,\n        uint256 timestamp\n    );\n\n    event FileAccessed(\n        string indexed ipfsHash,\n        address indexed user,\n        uint256 timestamp\n    );\n\n    // Validate 4-digit key format\n    modifier validKey(string memory key) {\n        require(bytes(key).length == 4, \"Key must be exactly 4 digits\");\n        for(uint i = 0; i < 4; i++) {\n            require(\n                uint8(bytes(key)[i]) >= 48 && uint8(bytes(key)[i]) <= 57,\n                \"Key must contain only numeric digits\"\n            );\n        }\n        _;\n    }\n\n    modifier fileExists(string memory ipfsHash) {\n        require(files[ipfsHash].exists, \"File does not exist\");\n        _;\n    }\n\n    modifier onlyOwner(string memory ipfsHash) {\n        require(files[ipfsHash].owner == msg.sender, \"Only owner can perform this action\");\n        _;\n    }\n\n    // Upload a file with filename, description, and timestamp\n    function uploadFile(\n        string memory ipfsHash,\n        string memory fileName,\n        string memory description\n    ) public {\n        require(bytes(ipfsHash).length > 0, \"Invalid IPFS hash\");\n        require(bytes(fileName).length > 0, \"Filename cannot be empty\");\n        require(bytes(description).length > 0, \"Description cannot be empty\");\n        require(!files[ipfsHash].exists, \"File already exists\");\n\n        files[ipfsHash] = File({\n            ipfsHash: ipfsHash,\n            fileName: fileName,\n            description: description,\n            timestamp: block.timestamp,\n            owner: msg.sender,\n            exists: true\n        });\n\n        userFiles[msg.sender].push(ipfsHash);\n\n        emit FileUploaded(\n            ipfsHash,\n            fileName,\n            description,\n            block.timestamp,\n            msg.sender\n        );\n    }\n\n    // Grant access to another user with a 4-digit key\n    function grantAccess(\n        string memory ipfsHash,\n        address receiver,\n        string memory accessKey\n    ) public \n        fileExists(ipfsHash)\n        validKey(accessKey)\n    {\n        require(receiver != address(0), \"Invalid receiver address\");\n        require(receiver != msg.sender, \"Cannot grant access to yourself\");\n        require(!accessList[ipfsHash][receiver].hasAccess, \"Access already granted\");\n        \n        // Check if sender is owner or has valid access\n        bool isOwner = files[ipfsHash].owner == msg.sender;\n        bool hasAccess = false;\n        \n        if (!isOwner) {\n            // If not owner, check if sender has access\n            AccessControl memory senderAccess = accessList[ipfsHash][msg.sender];\n            hasAccess = senderAccess.hasAccess;\n            require(hasAccess, \"You don't have access to share this file\");\n            \n            // Record in share history when a receiver shares with another user\n            ShareHistory memory history = ShareHistory({\n                originalOwner: files[ipfsHash].owner,\n                sharedBy: msg.sender,\n                sharedTo: receiver,\n                sharedAt: block.timestamp\n            });\n            \n            fileShareHistory[ipfsHash].push(history);\n        }\n\n        accessList[ipfsHash][receiver] = AccessControl({\n            hasAccess: true,\n            accessKey: accessKey,\n            grantedAt: block.timestamp\n        });\n\n        fileAccessList[ipfsHash].push(receiver);\n\n        emit AccessGranted(\n            ipfsHash,\n            msg.sender,\n            receiver,\n            block.timestamp\n        );\n    }\n\n    // Revoke access from a user\n    function revokeAccess(\n        string memory ipfsHash,\n        address user\n    ) public \n        fileExists(ipfsHash)\n        onlyOwner(ipfsHash)\n    {\n        require(accessList[ipfsHash][user].hasAccess, \"No access to revoke\");\n\n        accessList[ipfsHash][user].hasAccess = false;\n        \n        // Remove from fileAccessList\n        address[] storage accessArray = fileAccessList[ipfsHash];\n        for (uint i = 0; i < accessArray.length; i++) {\n            if (accessArray[i] == user) {\n                accessArray[i] = accessArray[accessArray.length - 1];\n                accessArray.pop();\n                break;\n            }\n        }\n\n        emit AccessRevoked(\n            ipfsHash,\n            msg.sender,\n            user,\n            block.timestamp\n        );\n    }\n\n    // Verify access and record accessed file\n    function verifyAccess(\n        string memory ipfsHash,\n        address user,\n        string memory accessKey\n    ) public view \n        fileExists(ipfsHash)\n        validKey(accessKey)\n        returns (bool)\n    {\n        if (files[ipfsHash].owner == user) {\n            return true;  // Owner always has access\n        }\n\n        AccessControl memory access = accessList[ipfsHash][user];\n        return access.hasAccess && \n               keccak256(bytes(access.accessKey)) == keccak256(bytes(accessKey));\n    }\n\n    // Record file access after verification\n    function recordFileAccess(\n        string memory ipfsHash,\n        address user\n    ) public\n        fileExists(ipfsHash)\n    {\n        require(\n            files[ipfsHash].owner == user || accessList[ipfsHash][user].hasAccess,\n            \"User does not have access to this file\"\n        );\n\n        // Check if file is already in accessed files\n        bool isFileInAccessList = false;\n        for (uint i = 0; i < accessedFiles[user].length; i++) {\n            if (keccak256(bytes(accessedFiles[user][i])) == keccak256(bytes(ipfsHash))) {\n                isFileInAccessList = true;\n                break;\n            }\n        }\n\n        // Add to accessed files if not already present\n        if (!isFileInAccessList) {\n            accessedFiles[user].push(ipfsHash);\n            emit FileAccessed(ipfsHash, user, block.timestamp);\n        }\n    }\n\n    // Get all accessed files for a user\n    function getAccessedFiles(address user) public view returns (string[] memory) {\n        return accessedFiles[user];\n    }\n\n    // Modified getFilesByUser to include both owned and accessed files\n    function getFilesByUser(address user) public view returns (string[] memory) {\n        string[] memory owned = userFiles[user];\n        string[] memory accessed = accessedFiles[user];\n        \n        // Calculate total length\n        uint totalLength = owned.length + accessed.length;\n        \n        // Create combined array\n        string[] memory combined = new string[](totalLength);\n        \n        // Copy owned files\n        for(uint i = 0; i < owned.length; i++) {\n            combined[i] = owned[i];\n        }\n        \n        // Copy accessed files\n        for(uint i = 0; i < accessed.length; i++) {\n            combined[owned.length + i] = accessed[i];\n        }\n        \n        return combined;\n    }\n\n    // Get file details by IPFS hash\n    function getFileDetails(string memory ipfsHash) public view \n        fileExists(ipfsHash)\n        returns (\n            string memory fileName,\n            string memory description,\n            uint256 timestamp,\n            address owner\n        )\n    {\n        File memory file = files[ipfsHash];\n        return (\n            file.fileName,\n            file.description,\n            file.timestamp,\n            file.owner\n        );\n    }\n\n    // Get the list of addresses that have been granted access to a file\n    function getFileAccessList(string memory ipfsHash) public view \n        fileExists(ipfsHash)\n        returns (address[] memory)\n    {\n        return fileAccessList[ipfsHash];\n    }\n\n    function getAccessDetails(string memory ipfsHash, address user) public view\n        fileExists(ipfsHash)\n        returns (\n            bool hasAccess,\n            uint256 grantedAt\n        )\n    {\n        AccessControl memory access = accessList[ipfsHash][user];\n        return (\n            access.hasAccess,\n            access.grantedAt\n        );\n    }\n\n    // Get the file sharing history\n    function getFileShareHistory(string memory ipfsHash) public view \n        fileExists(ipfsHash)\n        returns (\n            address[] memory originalOwners,\n            address[] memory sharedBy,\n            address[] memory sharedTo,\n            uint256[] memory sharedAt\n        )\n    {\n        ShareHistory[] memory history = fileShareHistory[ipfsHash];\n        uint256 length = history.length;\n        \n        originalOwners = new address[](length);\n        sharedBy = new address[](length);\n        sharedTo = new address[](length);\n        sharedAt = new uint256[](length);\n        \n        for (uint256 i = 0; i < length; i++) {\n            originalOwners[i] = history[i].originalOwner;\n            sharedBy[i] = history[i].sharedBy;\n            sharedTo[i] = history[i].sharedTo;\n            sharedAt[i] = history[i].sharedAt;\n        }\n        \n        return (originalOwners, sharedBy, sharedTo, sharedAt);\n    }\n}",
  "sourcePath": "C:\\Users\\prith\\Desktop\\major\\QWEN@S revoke 6\\QWEN@S revoke 6\\Decentralized_FileStorage\\contracts\\FileStorage.sol",
  "compiler": {
    "name": "solc",
    "version": "0.8.0+commit.c7dfd78e.Emscripten.clang"
  },
  "schemaVersion": "3.4.16",
  "updatedAt": "2025-05-06T06:10:12.973Z",
  "networkType": "ethereum",
  "devdoc": {
    "kind": "dev",
    "methods": {},
    "version": 1
  },
  "userdoc": {
    "kind": "user",
    "methods": {},
    "version": 1
  }
}